{
  "contractName": "Vote",
  "abi": [
    {
      "inputs": [],
      "payable": false,
      "stateMutability": "nonpayable",
      "type": "constructor"
    },
    {
      "constant": false,
      "inputs": [
        {
          "name": "vote",
          "type": "bool"
        }
      ],
      "name": "setVote",
      "outputs": [
        {
          "name": "success",
          "type": "bool"
        }
      ],
      "payable": false,
      "stateMutability": "nonpayable",
      "type": "function"
    },
    {
      "constant": true,
      "inputs": [],
      "name": "results",
      "outputs": [
        {
          "name": "_NoProposal",
          "type": "uint16"
        },
        {
          "name": "_YesProposal",
          "type": "uint16"
        }
      ],
      "payable": false,
      "stateMutability": "view",
      "type": "function"
    },
    {
      "constant": true,
      "inputs": [],
      "name": "hasVote",
      "outputs": [
        {
          "name": "voted",
          "type": "bool"
        },
        {
          "name": "vote",
          "type": "bool"
        }
      ],
      "payable": false,
      "stateMutability": "view",
      "type": "function"
    }
  ],
  "bytecode": "0x608060405234801561001057600080fd5b50600160408051908101604052807f4e4f000000000000000000000000000000000000000000000000000000000000600019168152602001600061ffff16815250908060018154018082558091505090600182039060005260206000209060020201600090919290919091506000820151816000019060001916905560208201518160010160006101000a81548161ffff021916908361ffff160217905550505050600160408051908101604052807f5945530000000000000000000000000000000000000000000000000000000000600019168152602001600061ffff16815250908060018154018082558091505090600182039060005260206000209060020201600090919290919091506000820151816000019060001916905560208201518160010160006101000a81548161ffff021916908361ffff1602179055505050506103a4806101626000396000f300608060405260043610610057576000357c0100000000000000000000000000000000000000000000000000000000900463ffffffff1680632fa235431461005c578063a48bdb7c14610096578063e3b2151d146100d8575b600080fd5b34801561006857600080fd5b5061007161011f565b6040518083151515158152602001821515151581526020019250505060405180910390f35b3480156100a257600080fd5b506100ab610191565b604051808361ffff1661ffff1681526020018261ffff1661ffff1681526020019250505060405180910390f35b3480156100e457600080fd5b506101056004803603810190808035151590602001909291905050506101fb565b604051808215151515815260200191505060405180910390f35b60008060008060003373ffffffffffffffffffffffffffffffffffffffff1673ffffffffffffffffffffffffffffffffffffffff16815260200190815260200160002090508060000160009054906101000a900460ff1692508060000160019054906101000a900460ff169150509091565b600080600160008154811015156101a457fe5b906000526020600020906002020160010160009054906101000a900461ffff1691506001808154811015156101d557fe5b906000526020600020906002020160010160009054906101000a900461ffff1690509091565b6000806000803373ffffffffffffffffffffffffffffffffffffffff1673ffffffffffffffffffffffffffffffffffffffff16815260200190815260200160002090508060000160009054906101000a900460ff161515156102c5576040517f08c379a000000000000000000000000000000000000000000000000000000000815260040180806020018281038252600e8152602001807f416c726561647920766f7465642e00000000000000000000000000000000000081525060200191505060405180910390fd5b60018160000160006101000a81548160ff021916908315150217905550828160000160016101000a81548160ff0219169083151502179055506001808260000160019054906101000a900460ff1661031e576000610321565b60015b60ff1681548110151561033057fe5b906000526020600020906002020160010160008282829054906101000a900461ffff160192506101000a81548161ffff021916908361ffff16021790555060019150509190505600a165627a7a723058200c48ebc6af326fde8ad13e196eb2127bab857c5348c409611c211074f49bf8250029",
  "source": "pragma solidity ^0.4.22;\r\n\r\ncontract Vote{\r\n    \r\n    struct Voter {        \r\n        bool voted;\r\n        bool vote;        \r\n    }\r\n\r\n    struct Proposal {\r\n        bytes32 name;  \r\n        uint16 count;\r\n    }\r\n\r\n    mapping(address => Voter) voters;\r\n    Proposal[] proposals;\r\n\r\n    constructor () public{\r\n        proposals.push(Proposal({\r\n            name: \"NO\",\r\n            count: 0\r\n            }));\r\n        proposals.push(Proposal({\r\n            name: \"YES\",\r\n            count: 0\r\n            }));\r\n        // proposals[0] = Proposal({\r\n        //     name: \"NO\",\r\n        //     count: 0\r\n        // });\r\n        // proposals[1] = Proposal({\r\n        //     name: \"YES\",\r\n        //     count: 0\r\n        // });\r\n    }\r\n\r\n    function setVote(bool vote)public returns(bool success){\r\n        Voter storage sender = voters[msg.sender];\r\n        require(!sender.voted, \"Already voted.\");\r\n        // if(sender.voted)return;\r\n        sender.voted = true;\r\n        sender.vote = vote;\r\n        //proposal true=>1 (YES)|| false=>0 (NO)\r\n        proposals[sender.vote ? 1 : 0].count += 1;\r\n        return true;\r\n    }\r\n    \r\n    function results () public view returns(uint16 _NoProposal, uint16 _YesProposal){\r\n        _NoProposal = proposals[0].count;\r\n        _YesProposal = proposals[1].count;\r\n    }\r\n\r\n    function hasVote()public view returns(bool voted, bool vote){\r\n        Voter storage sender = voters[msg.sender];\r\n        voted = sender.voted;\r\n        vote = sender.vote;\r\n    }\r\n\r\n}",
  "sourcePath": "C:\\Users\\fgregoribattista\\Desktop\\altoros\\contracts\\Vote.sol",
  "compiler": {
    "name": "solc",
    "version": "0.4.24+commit.e67f0147.Emscripten.clang"
  },
  "schemaVersion": "2.0.1",
  "updatedAt": "2018-12-10T10:58:07.892Z"
}